{
  "_format": "hh-sol-artifact-1",
  "contractName": "Donate",
  "sourceName": "contracts/Donate.sol",
  "abi": [
    {
      "inputs": [],
      "stateMutability": "nonpayable",
      "type": "constructor"
    },
    {
      "stateMutability": "payable",
      "type": "fallback"
    },
    {
      "inputs": [
        {
          "internalType": "string",
          "name": "name",
          "type": "string"
        },
        {
          "internalType": "string",
          "name": "message",
          "type": "string"
        }
      ],
      "name": "donate",
      "outputs": [],
      "stateMutability": "payable",
      "type": "function"
    },
    {
      "inputs": [
        {
          "internalType": "uint256",
          "name": "",
          "type": "uint256"
        }
      ],
      "name": "donors",
      "outputs": [
        {
          "internalType": "string",
          "name": "name",
          "type": "string"
        },
        {
          "internalType": "string",
          "name": "message",
          "type": "string"
        },
        {
          "internalType": "uint256",
          "name": "timestamp",
          "type": "uint256"
        },
        {
          "internalType": "address",
          "name": "from",
          "type": "address"
        }
      ],
      "stateMutability": "view",
      "type": "function"
    },
    {
      "inputs": [],
      "name": "getDonor",
      "outputs": [
        {
          "components": [
            {
              "internalType": "string",
              "name": "name",
              "type": "string"
            },
            {
              "internalType": "string",
              "name": "message",
              "type": "string"
            },
            {
              "internalType": "uint256",
              "name": "timestamp",
              "type": "uint256"
            },
            {
              "internalType": "address",
              "name": "from",
              "type": "address"
            }
          ],
          "internalType": "struct Donate.Donor[]",
          "name": "",
          "type": "tuple[]"
        }
      ],
      "stateMutability": "view",
      "type": "function"
    },
    {
      "inputs": [],
      "name": "withdraw",
      "outputs": [],
      "stateMutability": "nonpayable",
      "type": "function"
    },
    {
      "stateMutability": "payable",
      "type": "receive"
    }
  ],
  "bytecode": "0x608060405234801561001057600080fd5b50336000806101000a81548173ffffffffffffffffffffffffffffffffffffffff021916908373ffffffffffffffffffffffffffffffffffffffff16021790555061125d806100606000396000f3fe6080604052600436106100435760003560e01c80631653441c1461004c5780633ccfd60b146100685780634abfa1631461007f578063e0218fb3146100bf5761004a565b3661004a57005b005b61006660048036038101906100619190610934565b6100ea565b005b34801561007457600080fd5b5061007d6102e0565b005b34801561008b57600080fd5b506100a660048036038101906100a191906109e2565b610487565b6040516100b69493929190610ade565b60405180910390f35b3480156100cb57600080fd5b506100d46105f7565b6040516100e19190610cc5565b60405180910390f35b6000341161012d576040517f08c379a000000000000000000000000000000000000000000000000000000000815260040161012490610d33565b60405180910390fd5b60008060009054906101000a900473ffffffffffffffffffffffffffffffffffffffff1673ffffffffffffffffffffffffffffffffffffffff163460405161017490610d84565b60006040518083038185875af1925050503d80600081146101b1576040519150601f19603f3d011682016040523d82523d6000602084013e6101b6565b606091505b50509050806101fa576040517f08c379a00000000000000000000000000000000000000000000000000000000081526004016101f190610de5565b60405180910390fd5b600160405180608001604052808581526020018481526020014281526020013373ffffffffffffffffffffffffffffffffffffffff16815250908060018154018082558091505060019003906000526020600020906004020160009091909190915060008201518160000190816102719190611011565b5060208201518160010190816102879190611011565b506040820151816002015560608201518160030160006101000a81548173ffffffffffffffffffffffffffffffffffffffff021916908373ffffffffffffffffffffffffffffffffffffffff1602179055505050505050565b60008054906101000a900473ffffffffffffffffffffffffffffffffffffffff1673ffffffffffffffffffffffffffffffffffffffff163373ffffffffffffffffffffffffffffffffffffffff161461036e576040517f08c379a00000000000000000000000000000000000000000000000000000000081526004016103659061112f565b60405180910390fd5b6000479050600081116103b6576040517f08c379a00000000000000000000000000000000000000000000000000000000081526004016103ad9061119b565b60405180910390fd5b60008060009054906101000a900473ffffffffffffffffffffffffffffffffffffffff1673ffffffffffffffffffffffffffffffffffffffff16826040516103fd90610d84565b60006040518083038185875af1925050503d806000811461043a576040519150601f19603f3d011682016040523d82523d6000602084013e61043f565b606091505b5050905080610483576040517f08c379a000000000000000000000000000000000000000000000000000000000815260040161047a90611207565b60405180910390fd5b5050565b6001818154811061049757600080fd5b90600052602060002090600402016000915090508060000180546104ba90610e34565b80601f01602080910402602001604051908101604052809291908181526020018280546104e690610e34565b80156105335780601f1061050857610100808354040283529160200191610533565b820191906000526020600020905b81548152906001019060200180831161051657829003601f168201915b50505050509080600101805461054890610e34565b80601f016020809104026020016040519081016040528092919081815260200182805461057490610e34565b80156105c15780601f10610596576101008083540402835291602001916105c1565b820191906000526020600020905b8154815290600101906020018083116105a457829003601f168201915b5050505050908060020154908060030160009054906101000a900473ffffffffffffffffffffffffffffffffffffffff16905084565b60606001805480602002602001604051908101604052809291908181526020016000905b828210156107d1578382906000526020600020906004020160405180608001604052908160008201805461064e90610e34565b80601f016020809104026020016040519081016040528092919081815260200182805461067a90610e34565b80156106c75780601f1061069c576101008083540402835291602001916106c7565b820191906000526020600020905b8154815290600101906020018083116106aa57829003601f168201915b505050505081526020016001820180546106e090610e34565b80601f016020809104026020016040519081016040528092919081815260200182805461070c90610e34565b80156107595780601f1061072e57610100808354040283529160200191610759565b820191906000526020600020905b81548152906001019060200180831161073c57829003601f168201915b50505050508152602001600282015481526020016003820160009054906101000a900473ffffffffffffffffffffffffffffffffffffffff1673ffffffffffffffffffffffffffffffffffffffff1673ffffffffffffffffffffffffffffffffffffffff16815250508152602001906001019061061b565b50505050905090565b6000604051905090565b600080fd5b600080fd5b600080fd5b600080fd5b6000601f19601f8301169050919050565b7f4e487b7100000000000000000000000000000000000000000000000000000000600052604160045260246000fd5b610841826107f8565b810181811067ffffffffffffffff821117156108605761085f610809565b5b80604052505050565b60006108736107da565b905061087f8282610838565b919050565b600067ffffffffffffffff82111561089f5761089e610809565b5b6108a8826107f8565b9050602081019050919050565b82818337600083830152505050565b60006108d76108d284610884565b610869565b9050828152602081018484840111156108f3576108f26107f3565b5b6108fe8482856108b5565b509392505050565b600082601f83011261091b5761091a6107ee565b5b813561092b8482602086016108c4565b91505092915050565b6000806040838503121561094b5761094a6107e4565b5b600083013567ffffffffffffffff811115610969576109686107e9565b5b61097585828601610906565b925050602083013567ffffffffffffffff811115610996576109956107e9565b5b6109a285828601610906565b9150509250929050565b6000819050919050565b6109bf816109ac565b81146109ca57600080fd5b50565b6000813590506109dc816109b6565b92915050565b6000602082840312156109f8576109f76107e4565b5b6000610a06848285016109cd565b91505092915050565b600081519050919050565b600082825260208201905092915050565b60005b83811015610a49578082015181840152602081019050610a2e565b60008484015250505050565b6000610a6082610a0f565b610a6a8185610a1a565b9350610a7a818560208601610a2b565b610a83816107f8565b840191505092915050565b610a97816109ac565b82525050565b600073ffffffffffffffffffffffffffffffffffffffff82169050919050565b6000610ac882610a9d565b9050919050565b610ad881610abd565b82525050565b60006080820190508181036000830152610af88187610a55565b90508181036020830152610b0c8186610a55565b9050610b1b6040830185610a8e565b610b286060830184610acf565b95945050505050565b600081519050919050565b600082825260208201905092915050565b6000819050602082019050919050565b600082825260208201905092915050565b6000610b7982610a0f565b610b838185610b5d565b9350610b93818560208601610a2b565b610b9c816107f8565b840191505092915050565b610bb0816109ac565b82525050565b610bbf81610abd565b82525050565b60006080830160008301518482036000860152610be28282610b6e565b91505060208301518482036020860152610bfc8282610b6e565b9150506040830151610c116040860182610ba7565b506060830151610c246060860182610bb6565b508091505092915050565b6000610c3b8383610bc5565b905092915050565b6000602082019050919050565b6000610c5b82610b31565b610c658185610b3c565b935083602082028501610c7785610b4d565b8060005b85811015610cb35784840389528151610c948582610c2f565b9450610c9f83610c43565b925060208a01995050600181019050610c7b565b50829750879550505050505092915050565b60006020820190508181036000830152610cdf8184610c50565b905092915050565b7f506c65617365207061792067726561746572207468616e203020657468657200600082015250565b6000610d1d601f83610a1a565b9150610d2882610ce7565b602082019050919050565b60006020820190508181036000830152610d4c81610d10565b9050919050565b600081905092915050565b50565b6000610d6e600083610d53565b9150610d7982610d5e565b600082019050919050565b6000610d8f82610d61565b9150819050919050565b7f556e61626c6520746f20646f6e61746520657468657200000000000000000000600082015250565b6000610dcf601683610a1a565b9150610dda82610d99565b602082019050919050565b60006020820190508181036000830152610dfe81610dc2565b9050919050565b7f4e487b7100000000000000000000000000000000000000000000000000000000600052602260045260246000fd5b60006002820490506001821680610e4c57607f821691505b602082108103610e5f57610e5e610e05565b5b50919050565b60008190508160005260206000209050919050565b60006020601f8301049050919050565b600082821b905092915050565b600060088302610ec77fffffffffffffffffffffffffffffffffffffffffffffffffffffffffffffffff82610e8a565b610ed18683610e8a565b95508019841693508086168417925050509392505050565b6000819050919050565b6000610f0e610f09610f04846109ac565b610ee9565b6109ac565b9050919050565b6000819050919050565b610f2883610ef3565b610f3c610f3482610f15565b848454610e97565b825550505050565b600090565b610f51610f44565b610f5c818484610f1f565b505050565b5b81811015610f8057610f75600082610f49565b600181019050610f62565b5050565b601f821115610fc557610f9681610e65565b610f9f84610e7a565b81016020851015610fae578190505b610fc2610fba85610e7a565b830182610f61565b50505b505050565b600082821c905092915050565b6000610fe860001984600802610fca565b1980831691505092915050565b60006110018383610fd7565b9150826002028217905092915050565b61101a82610a0f565b67ffffffffffffffff81111561103357611032610809565b5b61103d8254610e34565b611048828285610f84565b600060209050601f83116001811461107b5760008415611069578287015190505b6110738582610ff5565b8655506110db565b601f19841661108986610e65565b60005b828110156110b15784890151825560018201915060208501945060208101905061108c565b868310156110ce57848901516110ca601f891682610fd7565b8355505b6001600288020188555050505b505050505050565b7f4f6e6c7920746865206f776e65722063616e2077697468647261770000000000600082015250565b6000611119601b83610a1a565b9150611124826110e3565b602082019050919050565b600060208201905081810360008301526111488161110c565b9050919050565b7f4e6f2066756e647320746f207769746864726177000000000000000000000000600082015250565b6000611185601483610a1a565b91506111908261114f565b602082019050919050565b600060208201905081810360008301526111b481611178565b9050919050565b7f4661696c656420746f2077697468647261772045746865720000000000000000600082015250565b60006111f1601883610a1a565b91506111fc826111bb565b602082019050919050565b60006020820190508181036000830152611220816111e4565b905091905056fea2646970667358221220804001f94a40d0c7f1721113c008911938c129774deb871a051a6edebb217d0464736f6c63430008180033",
  "linkReferences": {},
  "deployedLinkReferences": {}
}