{
  "_format": "hh-sol-artifact-1",
  "contractName": "Donate",
  "sourceName": "contracts/Donate.sol",
  "abi": [
    {
      "inputs": [],
      "stateMutability": "nonpayable",
      "type": "constructor"
    },
    {
      "stateMutability": "payable",
      "type": "fallback"
    },
    {
      "inputs": [
        {
          "internalType": "string",
          "name": "name",
          "type": "string"
        },
        {
          "internalType": "string",
          "name": "message",
          "type": "string"
        }
      ],
      "name": "donate",
      "outputs": [],
      "stateMutability": "payable",
      "type": "function"
    },
    {
      "inputs": [
        {
          "internalType": "uint256",
          "name": "",
          "type": "uint256"
        }
      ],
      "name": "donors",
      "outputs": [
        {
          "internalType": "string",
          "name": "name",
          "type": "string"
        },
        {
          "internalType": "string",
          "name": "message",
          "type": "string"
        },
        {
          "internalType": "uint256",
          "name": "timestamp",
          "type": "uint256"
        },
        {
          "internalType": "address",
          "name": "from",
          "type": "address"
        }
      ],
      "stateMutability": "view",
      "type": "function"
    },
    {
      "inputs": [],
      "name": "getDonor",
      "outputs": [
        {
          "components": [
            {
              "internalType": "string",
              "name": "name",
              "type": "string"
            },
            {
              "internalType": "string",
              "name": "message",
              "type": "string"
            },
            {
              "internalType": "uint256",
              "name": "timestamp",
              "type": "uint256"
            },
            {
              "internalType": "address",
              "name": "from",
              "type": "address"
            }
          ],
          "internalType": "struct Donate.Donor[]",
          "name": "",
          "type": "tuple[]"
        }
      ],
      "stateMutability": "view",
      "type": "function"
    },
    {
      "stateMutability": "payable",
      "type": "receive"
    }
  ],
  "bytecode": "0x608060405234801561001057600080fd5b50336000806101000a81548173ffffffffffffffffffffffffffffffffffffffff021916908373ffffffffffffffffffffffffffffffffffffffff160217905550610f50806100606000396000f3fe6080604052600436106100385760003560e01c80631653441c146100415780634abfa1631461005d578063e0218fb31461009d5761003f565b3661003f57005b005b61005b6004803603810190610056919061076b565b6100c8565b005b34801561006957600080fd5b50610084600480360381019061007f9190610819565b6102be565b6040516100949493929190610915565b60405180910390f35b3480156100a957600080fd5b506100b261042e565b6040516100bf9190610afc565b60405180910390f35b6000341161010b576040517f08c379a000000000000000000000000000000000000000000000000000000000815260040161010290610b6a565b60405180910390fd5b60008060009054906101000a900473ffffffffffffffffffffffffffffffffffffffff1673ffffffffffffffffffffffffffffffffffffffff163460405161015290610bbb565b60006040518083038185875af1925050503d806000811461018f576040519150601f19603f3d011682016040523d82523d6000602084013e610194565b606091505b50509050806101d8576040517f08c379a00000000000000000000000000000000000000000000000000000000081526004016101cf90610c1c565b60405180910390fd5b600160405180608001604052808581526020018481526020014281526020013373ffffffffffffffffffffffffffffffffffffffff168152509080600181540180825580915050600190039060005260206000209060040201600090919091909150600082015181600001908161024f9190610e48565b5060208201518160010190816102659190610e48565b506040820151816002015560608201518160030160006101000a81548173ffffffffffffffffffffffffffffffffffffffff021916908373ffffffffffffffffffffffffffffffffffffffff1602179055505050505050565b600181815481106102ce57600080fd5b90600052602060002090600402016000915090508060000180546102f190610c6b565b80601f016020809104026020016040519081016040528092919081815260200182805461031d90610c6b565b801561036a5780601f1061033f5761010080835404028352916020019161036a565b820191906000526020600020905b81548152906001019060200180831161034d57829003601f168201915b50505050509080600101805461037f90610c6b565b80601f01602080910402602001604051908101604052809291908181526020018280546103ab90610c6b565b80156103f85780601f106103cd576101008083540402835291602001916103f8565b820191906000526020600020905b8154815290600101906020018083116103db57829003601f168201915b5050505050908060020154908060030160009054906101000a900473ffffffffffffffffffffffffffffffffffffffff16905084565b60606001805480602002602001604051908101604052809291908181526020016000905b82821015610608578382906000526020600020906004020160405180608001604052908160008201805461048590610c6b565b80601f01602080910402602001604051908101604052809291908181526020018280546104b190610c6b565b80156104fe5780601f106104d3576101008083540402835291602001916104fe565b820191906000526020600020905b8154815290600101906020018083116104e157829003601f168201915b5050505050815260200160018201805461051790610c6b565b80601f016020809104026020016040519081016040528092919081815260200182805461054390610c6b565b80156105905780601f1061056557610100808354040283529160200191610590565b820191906000526020600020905b81548152906001019060200180831161057357829003601f168201915b50505050508152602001600282015481526020016003820160009054906101000a900473ffffffffffffffffffffffffffffffffffffffff1673ffffffffffffffffffffffffffffffffffffffff1673ffffffffffffffffffffffffffffffffffffffff168152505081526020019060010190610452565b50505050905090565b6000604051905090565b600080fd5b600080fd5b600080fd5b600080fd5b6000601f19601f8301169050919050565b7f4e487b7100000000000000000000000000000000000000000000000000000000600052604160045260246000fd5b6106788261062f565b810181811067ffffffffffffffff8211171561069757610696610640565b5b80604052505050565b60006106aa610611565b90506106b6828261066f565b919050565b600067ffffffffffffffff8211156106d6576106d5610640565b5b6106df8261062f565b9050602081019050919050565b82818337600083830152505050565b600061070e610709846106bb565b6106a0565b90508281526020810184848401111561072a5761072961062a565b5b6107358482856106ec565b509392505050565b600082601f83011261075257610751610625565b5b81356107628482602086016106fb565b91505092915050565b600080604083850312156107825761078161061b565b5b600083013567ffffffffffffffff8111156107a05761079f610620565b5b6107ac8582860161073d565b925050602083013567ffffffffffffffff8111156107cd576107cc610620565b5b6107d98582860161073d565b9150509250929050565b6000819050919050565b6107f6816107e3565b811461080157600080fd5b50565b600081359050610813816107ed565b92915050565b60006020828403121561082f5761082e61061b565b5b600061083d84828501610804565b91505092915050565b600081519050919050565b600082825260208201905092915050565b60005b83811015610880578082015181840152602081019050610865565b60008484015250505050565b600061089782610846565b6108a18185610851565b93506108b1818560208601610862565b6108ba8161062f565b840191505092915050565b6108ce816107e3565b82525050565b600073ffffffffffffffffffffffffffffffffffffffff82169050919050565b60006108ff826108d4565b9050919050565b61090f816108f4565b82525050565b6000608082019050818103600083015261092f818761088c565b90508181036020830152610943818661088c565b905061095260408301856108c5565b61095f6060830184610906565b95945050505050565b600081519050919050565b600082825260208201905092915050565b6000819050602082019050919050565b600082825260208201905092915050565b60006109b082610846565b6109ba8185610994565b93506109ca818560208601610862565b6109d38161062f565b840191505092915050565b6109e7816107e3565b82525050565b6109f6816108f4565b82525050565b60006080830160008301518482036000860152610a1982826109a5565b91505060208301518482036020860152610a3382826109a5565b9150506040830151610a4860408601826109de565b506060830151610a5b60608601826109ed565b508091505092915050565b6000610a7283836109fc565b905092915050565b6000602082019050919050565b6000610a9282610968565b610a9c8185610973565b935083602082028501610aae85610984565b8060005b85811015610aea5784840389528151610acb8582610a66565b9450610ad683610a7a565b925060208a01995050600181019050610ab2565b50829750879550505050505092915050565b60006020820190508181036000830152610b168184610a87565b905092915050565b7f506c65617365207061792067726561746572207468616e203020657468657200600082015250565b6000610b54601f83610851565b9150610b5f82610b1e565b602082019050919050565b60006020820190508181036000830152610b8381610b47565b9050919050565b600081905092915050565b50565b6000610ba5600083610b8a565b9150610bb082610b95565b600082019050919050565b6000610bc682610b98565b9150819050919050565b7f556e61626c6520746f20646f6e61746520657468657200000000000000000000600082015250565b6000610c06601683610851565b9150610c1182610bd0565b602082019050919050565b60006020820190508181036000830152610c3581610bf9565b9050919050565b7f4e487b7100000000000000000000000000000000000000000000000000000000600052602260045260246000fd5b60006002820490506001821680610c8357607f821691505b602082108103610c9657610c95610c3c565b5b50919050565b60008190508160005260206000209050919050565b60006020601f8301049050919050565b600082821b905092915050565b600060088302610cfe7fffffffffffffffffffffffffffffffffffffffffffffffffffffffffffffffff82610cc1565b610d088683610cc1565b95508019841693508086168417925050509392505050565b6000819050919050565b6000610d45610d40610d3b846107e3565b610d20565b6107e3565b9050919050565b6000819050919050565b610d5f83610d2a565b610d73610d6b82610d4c565b848454610cce565b825550505050565b600090565b610d88610d7b565b610d93818484610d56565b505050565b5b81811015610db757610dac600082610d80565b600181019050610d99565b5050565b601f821115610dfc57610dcd81610c9c565b610dd684610cb1565b81016020851015610de5578190505b610df9610df185610cb1565b830182610d98565b50505b505050565b600082821c905092915050565b6000610e1f60001984600802610e01565b1980831691505092915050565b6000610e388383610e0e565b9150826002028217905092915050565b610e5182610846565b67ffffffffffffffff811115610e6a57610e69610640565b5b610e748254610c6b565b610e7f828285610dbb565b600060209050601f831160018114610eb25760008415610ea0578287015190505b610eaa8582610e2c565b865550610f12565b601f198416610ec086610c9c565b60005b82811015610ee857848901518255600182019150602085019450602081019050610ec3565b86831015610f055784890151610f01601f891682610e0e565b8355505b6001600288020188555050505b50505050505056fea264697066735822122022c12431869d5a19a8f581498c710e26c9bed99679822ba0351e0dee144a06f064736f6c63430008180033",
  "linkReferences": {},
  "deployedLinkReferences": {}
}